{
  "_format": "hh-sol-artifact-1",
  "contractName": "LockingStaking",
  "sourceName": "contracts/LockingStaking.sol",
  "abi": [
    {
      "inputs": [
        {
          "internalType": "address",
          "name": "_token",
          "type": "address"
        },
        {
          "internalType": "address",
          "name": "_feeAddress",
          "type": "address"
        },
        {
          "internalType": "uint256",
          "name": "_maxStakes",
          "type": "uint256"
        }
      ],
      "stateMutability": "nonpayable",
      "type": "constructor"
    },
    {
      "anonymous": false,
      "inputs": [
        {
          "indexed": true,
          "internalType": "address",
          "name": "_stakeHolder",
          "type": "address"
        },
        {
          "indexed": false,
          "internalType": "uint256",
          "name": "_reward",
          "type": "uint256"
        },
        {
          "indexed": false,
          "internalType": "uint256",
          "name": "_time",
          "type": "uint256"
        },
        {
          "indexed": false,
          "internalType": "uint256",
          "name": "stakedTime",
          "type": "uint256"
        }
      ],
      "name": "RewardsLogs",
      "type": "event"
    },
    {
      "anonymous": false,
      "inputs": [
        {
          "indexed": true,
          "internalType": "address",
          "name": "_stakeHolder",
          "type": "address"
        },
        {
          "indexed": false,
          "internalType": "uint256",
          "name": "_amount",
          "type": "uint256"
        },
        {
          "indexed": false,
          "internalType": "uint256",
          "name": "_stakeIndex",
          "type": "uint256"
        },
        {
          "indexed": false,
          "internalType": "uint256",
          "name": "_periodInseconds",
          "type": "uint256"
        },
        {
          "indexed": false,
          "internalType": "uint8",
          "name": "_profitPercentageRate",
          "type": "uint8"
        },
        {
          "indexed": false,
          "internalType": "uint256",
          "name": "_time",
          "type": "uint256"
        }
      ],
      "name": "StakeLogs",
      "type": "event"
    },
    {
      "inputs": [
        {
          "internalType": "address",
          "name": "_newAddress",
          "type": "address"
        }
      ],
      "name": "changeFeeAddress",
      "outputs": [],
      "stateMutability": "nonpayable",
      "type": "function"
    },
    {
      "inputs": [
        {
          "internalType": "uint256",
          "name": "_stakeIndex",
          "type": "uint256"
        }
      ],
      "name": "claimReward",
      "outputs": [],
      "stateMutability": "nonpayable",
      "type": "function"
    },
    {
      "inputs": [
        {
          "internalType": "uint256",
          "name": "_stakeIndex",
          "type": "uint256"
        }
      ],
      "name": "getOwnerOfStake",
      "outputs": [
        {
          "internalType": "address",
          "name": "",
          "type": "address"
        }
      ],
      "stateMutability": "view",
      "type": "function"
    },
    {
      "inputs": [],
      "name": "getStakesLength",
      "outputs": [
        {
          "internalType": "uint256",
          "name": "_length",
          "type": "uint256"
        }
      ],
      "stateMutability": "view",
      "type": "function"
    },
    {
      "inputs": [
        {
          "internalType": "address",
          "name": "_userAddress",
          "type": "address"
        }
      ],
      "name": "getStakesOf",
      "outputs": [
        {
          "internalType": "uint256[]",
          "name": "",
          "type": "uint256[]"
        }
      ],
      "stateMutability": "view",
      "type": "function"
    },
    {
      "inputs": [],
      "name": "getfeeAddress",
      "outputs": [
        {
          "internalType": "address",
          "name": "",
          "type": "address"
        }
      ],
      "stateMutability": "view",
      "type": "function"
    },
    {
      "inputs": [
        {
          "internalType": "uint8",
          "name": "_index",
          "type": "uint8"
        },
        {
          "internalType": "uint256",
          "name": "_amount",
          "type": "uint256"
        }
      ],
      "name": "increaseCoinsInRewardPool",
      "outputs": [],
      "stateMutability": "nonpayable",
      "type": "function"
    },
    {
      "inputs": [
        {
          "internalType": "address",
          "name": "_stakeHolder",
          "type": "address"
        }
      ],
      "name": "myActiveStakesCount",
      "outputs": [
        {
          "internalType": "uint256",
          "name": "",
          "type": "uint256"
        }
      ],
      "stateMutability": "view",
      "type": "function"
    },
    {
      "inputs": [],
      "name": "owner",
      "outputs": [
        {
          "internalType": "address",
          "name": "",
          "type": "address"
        }
      ],
      "stateMutability": "view",
      "type": "function"
    },
    {
      "inputs": [
        {
          "internalType": "uint256",
          "name": "_amount",
          "type": "uint256"
        },
        {
          "internalType": "uint8",
          "name": "_indexOfTier",
          "type": "uint8"
        }
      ],
      "name": "stake",
      "outputs": [],
      "stateMutability": "nonpayable",
      "type": "function"
    },
    {
      "inputs": [
        {
          "internalType": "uint256",
          "name": "_stakeIndex",
          "type": "uint256"
        }
      ],
      "name": "unStake",
      "outputs": [],
      "stateMutability": "nonpayable",
      "type": "function"
    }
  ],
  "bytecode": "0x60806040526040518060600160405280603c60ff168152602001607860ff16815260200160b460ff1681525060039060036200003d929190620001bd565b5060405180606001604052806103e861ffff1681526020016107d061ffff168152602001610bb861ffff1681525060069060036200007d92919062000207565b506040518060600160405280600a60ff168152602001601460ff168152602001601e60ff168152506009906003620000b792919062000252565b50348015620000c557600080fd5b5060405162002016380380620020168339818101604052810190620000eb9190620003b7565b336000806101000a81548173ffffffffffffffffffffffffffffffffffffffff021916908373ffffffffffffffffffffffffffffffffffffffff16021790555082600d60006101000a81548173ffffffffffffffffffffffffffffffffffffffff021916908373ffffffffffffffffffffffffffffffffffffffff16021790555081600160006101000a81548173ffffffffffffffffffffffffffffffffffffffff021916908373ffffffffffffffffffffffffffffffffffffffff1602179055508060028190555050505062000413565b8260038101928215620001f4579160200282015b82811115620001f3578251829060ff16905591602001919060010190620001d1565b5b509050620002039190620002f3565b5090565b82600381019282156200023f579160200282015b828111156200023e578251829061ffff169055916020019190600101906200021b565b5b5090506200024e9190620002f3565b5090565b826003601f01602090048101928215620002e05791602002820160005b83821115620002af57835183826101000a81548160ff021916908360ff16021790555092602001926001016020816000010492830192600103026200026f565b8015620002de5782816101000a81549060ff0219169055600101602081600001049283019260010302620002af565b505b509050620002ef9190620002f3565b5090565b5b808211156200030e576000816000905550600101620002f4565b5090565b600080fd5b600073ffffffffffffffffffffffffffffffffffffffff82169050919050565b6000620003448262000317565b9050919050565b620003568162000337565b81146200036257600080fd5b50565b60008151905062000376816200034b565b92915050565b6000819050919050565b62000391816200037c565b81146200039d57600080fd5b50565b600081519050620003b18162000386565b92915050565b600080600060608486031215620003d357620003d262000312565b5b6000620003e38682870162000365565b9350506020620003f68682870162000365565b92505060406200040986828701620003a0565b9150509250925092565b611bf380620004236000396000f3fe608060405234801561001057600080fd5b50600436106100a95760003560e01c80635d3eea91116100715780635d3eea91146101505780638da5cb5b1461016c578063ae169a501461018a578063c5146509146101a6578063e54aa552146101c4578063fafc08c4146101f4576100a9565b806310087fb1146100ae5780631b091210146100ca578063285e1406146100e65780633d1061d7146101025780634bade67e14610132575b600080fd5b6100c860048036038101906100c39190611309565b610224565b005b6100e460048036038101906100df9190611349565b610529565b005b61010060048036038101906100fb91906113e7565b6105ea565b005b61011c600480360381019061011791906113e7565b6106bc565b6040516101299190611423565b60405180910390f35b61013a6107cf565b6040516101479190611423565b60405180910390f35b61016a6004803603810190610165919061143e565b6107dc565b005b610174610d4a565b604051610181919061147a565b60405180910390f35b6101a4600480360381019061019f919061143e565b610d6e565b005b6101ae61116a565b6040516101bb919061147a565b60405180910390f35b6101de60048036038101906101d9919061143e565b611194565b6040516101eb919061147a565b60405180910390f35b61020e600480360381019061020991906113e7565b6111d1565b60405161021b9190611553565b60405180910390f35b60025461022f6107cf565b1115610270576040517f08c379a0000000000000000000000000000000000000000000000000000000008152600401610267906115f8565b60405180910390fd5b600d60009054906101000a900473ffffffffffffffffffffffffffffffffffffffff1673ffffffffffffffffffffffffffffffffffffffff166323b872dd3330856040518463ffffffff1660e01b81526004016102cf93929190611618565b6020604051808303816000875af11580156102ee573d6000803e3d6000fd5b505050506040513d601f19601f820116820180604052508101906103129190611687565b50600a60405180608001604052808481526020014281526020018360ff168152602001600115158152509080600181540180825580915050600190039060005260206000209060030201600090919091909150600082015181600001556020820151816001015560408201518160020160006101000a81548160ff021916908360ff16021790555060608201518160020160016101000a81548160ff021916908315150217905550505060006001600a805490506103d091906116e3565b9050600b60003373ffffffffffffffffffffffffffffffffffffffff1673ffffffffffffffffffffffffffffffffffffffff16815260200190815260200160002081908060018154018082558091505060019003906000526020600020016000909190919091505533600c600083815260200190815260200160002060006101000a81548173ffffffffffffffffffffffffffffffffffffffff021916908373ffffffffffffffffffffffffffffffffffffffff1602179055503373ffffffffffffffffffffffffffffffffffffffff167fb6aebd4ab4cec1b16e10b7ab12aa3912ca6d21cb59d9b758e3e98af519946aba848360038660ff16600381106104db576104da611717565b5b015460098760ff16600381106104f4576104f3611717565b5b602091828204019190069054906101000a900460ff164260405161051c959493929190611755565b60405180910390a2505050565b60008054906101000a900473ffffffffffffffffffffffffffffffffffffffff1673ffffffffffffffffffffffffffffffffffffffff163373ffffffffffffffffffffffffffffffffffffffff16146105b7576040517f08c379a00000000000000000000000000000000000000000000000000000000081526004016105ae906117f4565b60405180910390fd5b8060068360ff16600381106105cf576105ce611717565b5b0160008282546105df9190611814565b925050819055505050565b60008054906101000a900473ffffffffffffffffffffffffffffffffffffffff1673ffffffffffffffffffffffffffffffffffffffff163373ffffffffffffffffffffffffffffffffffffffff1614610678576040517f08c379a000000000000000000000000000000000000000000000000000000000815260040161066f906117f4565b60405180910390fd5b80600160006101000a81548173ffffffffffffffffffffffffffffffffffffffff021916908373ffffffffffffffffffffffffffffffffffffffff16021790555050565b6000806000905060005b80600b60008673ffffffffffffffffffffffffffffffffffffffff1673ffffffffffffffffffffffffffffffffffffffff1681526020019081526020016000208054905011156107c557600a600b60008673ffffffffffffffffffffffffffffffffffffffff1673ffffffffffffffffffffffffffffffffffffffff168152602001908152602001600020828154811061076357610762611717565b5b90600052602060002001548154811061077f5761077e611717565b5b906000526020600020906003020160020160019054906101000a900460ff16156107b25781806107ae90611848565b9250505b80806107bd90611848565b9150506106c6565b5080915050919050565b6000600a80549050905090565b3373ffffffffffffffffffffffffffffffffffffffff166107fc82611194565b73ffffffffffffffffffffffffffffffffffffffff1614610852576040517f08c379a000000000000000000000000000000000000000000000000000000000815260040161084990611902565b60405180910390fd5b61085b81610d6e565b6000600a828154811061087157610870611717565b5b906000526020600020906003020160405180608001604052908160008201548152602001600182015481526020016002820160009054906101000a900460ff1660ff1660ff1681526020016002820160019054906101000a900460ff161515151581525050905060006064600283600001516108ed9190611922565b6108f79190611993565b9050600081836000015161090b91906116e3565b9050600a848154811061092157610920611717565b5b906000526020600020906003020160008082016000905560018201600090556002820160006101000a81549060ff02191690556002820160016101000a81549060ff02191690555050600d60009054906101000a900473ffffffffffffffffffffffffffffffffffffffff1673ffffffffffffffffffffffffffffffffffffffff1663a9059cbb33836040518363ffffffff1660e01b81526004016109c79291906119c4565b6020604051808303816000875af11580156109e6573d6000803e3d6000fd5b505050506040513d601f19601f82011682018060405250810190610a0a9190611687565b50600d60009054906101000a900473ffffffffffffffffffffffffffffffffffffffff1673ffffffffffffffffffffffffffffffffffffffff1663a9059cbb600160009054906101000a900473ffffffffffffffffffffffffffffffffffffffff16846040518363ffffffff1660e01b8152600401610a8a9291906119c4565b6020604051808303816000875af1158015610aa9573d6000803e3d6000fd5b505050506040513d601f19601f82011682018060405250810190610acd9190611687565b50610ad6611268565b9250600c600085815260200190815260200160002060006101000a81549073ffffffffffffffffffffffffffffffffffffffff021916905560005b80600b60003373ffffffffffffffffffffffffffffffffffffffff1673ffffffffffffffffffffffffffffffffffffffff168152602001908152602001600020805490501115610d435784600b60003373ffffffffffffffffffffffffffffffffffffffff1673ffffffffffffffffffffffffffffffffffffffff1681526020019081526020016000208281548110610bad57610bac611717565b5b906000526020600020015403610d3057600b60003373ffffffffffffffffffffffffffffffffffffffff1673ffffffffffffffffffffffffffffffffffffffff1681526020019081526020016000206001600b60003373ffffffffffffffffffffffffffffffffffffffff1673ffffffffffffffffffffffffffffffffffffffff16815260200190815260200160002080549050610c4b91906116e3565b81548110610c5c57610c5b611717565b5b9060005260206000200154600b60003373ffffffffffffffffffffffffffffffffffffffff1673ffffffffffffffffffffffffffffffffffffffff1681526020019081526020016000208281548110610cb857610cb7611717565b5b9060005260206000200181905550600b60003373ffffffffffffffffffffffffffffffffffffffff1673ffffffffffffffffffffffffffffffffffffffff168152602001908152602001600020805480610d1557610d146119ed565b5b60019003818190600052602060002001600090559055610d43565b8080610d3b90611848565b915050610b11565b5050505050565b60008054906101000a900473ffffffffffffffffffffffffffffffffffffffff1681565b3373ffffffffffffffffffffffffffffffffffffffff16610d8e82611194565b73ffffffffffffffffffffffffffffffffffffffff1614610de4576040517f08c379a0000000000000000000000000000000000000000000000000000000008152600401610ddb90611902565b60405180910390fd5b6000600a8281548110610dfa57610df9611717565b5b906000526020600020906003020160405180608001604052908160008201548152602001600182015481526020016002820160009054906101000a900460ff1660ff1660ff1681526020016002820160019054906101000a900460ff16151515158152505090508060600151610ea5576040517f08c379a0000000000000000000000000000000000000000000000000000000008152600401610e9c90611a68565b60405180910390fd5b6000816020015142610eb791906116e3565b905060006003836040015160ff1660038110610ed657610ed5611717565b5b0154905080821015610f1d576040517f08c379a0000000000000000000000000000000000000000000000000000000008152600401610f1490611ad4565b60405180910390fd5b60008183610f2b9190611993565b9050600060646009866040015160ff1660038110610f4c57610f4b611717565b5b602091828204019190069054906101000a900460ff1660ff168660000151610f749190611922565b610f7e9190611993565b905060008282610f8e9190611922565b9050806006876040015160ff1660038110610fac57610fab611717565b5b01541015610fef576040517f08c379a0000000000000000000000000000000000000000000000000000000008152600401610fe690611b66565b60405180910390fd5b806006876040015160ff166003811061100b5761100a611717565b5b01600082825461101b91906116e3565b9250508190555042600a888154811061103757611036611717565b5b906000526020600020906003020160010181905550600d60009054906101000a900473ffffffffffffffffffffffffffffffffffffffff1673ffffffffffffffffffffffffffffffffffffffff166323b872dd60008054906101000a900473ffffffffffffffffffffffffffffffffffffffff1633846040518463ffffffff1660e01b81526004016110cb93929190611618565b6020604051808303816000875af11580156110ea573d6000803e3d6000fd5b505050506040513d601f19601f8201168201806040525081019061110e9190611687565b503373ffffffffffffffffffffffffffffffffffffffff167f5a19a990a0c535a9eae2d70a013fbfceeb8c8abb77d92a6b1638da07710024af82428860405161115993929190611b86565b60405180910390a250505050505050565b6000600160009054906101000a900473ffffffffffffffffffffffffffffffffffffffff16905090565b6000600c600083815260200190815260200160002060009054906101000a900473ffffffffffffffffffffffffffffffffffffffff169050919050565b6060600b60008373ffffffffffffffffffffffffffffffffffffffff1673ffffffffffffffffffffffffffffffffffffffff16815260200190815260200160002080548060200260200160405190810160405280929190818152602001828054801561125c57602002820191906000526020600020905b815481526020019060010190808311611248575b50505050509050919050565b60405180608001604052806000815260200160008152602001600060ff1681526020016000151581525090565b600080fd5b6000819050919050565b6112ad8161129a565b81146112b857600080fd5b50565b6000813590506112ca816112a4565b92915050565b600060ff82169050919050565b6112e6816112d0565b81146112f157600080fd5b50565b600081359050611303816112dd565b92915050565b600080604083850312156113205761131f611295565b5b600061132e858286016112bb565b925050602061133f858286016112f4565b9150509250929050565b600080604083850312156113605761135f611295565b5b600061136e858286016112f4565b925050602061137f858286016112bb565b9150509250929050565b600073ffffffffffffffffffffffffffffffffffffffff82169050919050565b60006113b482611389565b9050919050565b6113c4816113a9565b81146113cf57600080fd5b50565b6000813590506113e1816113bb565b92915050565b6000602082840312156113fd576113fc611295565b5b600061140b848285016113d2565b91505092915050565b61141d8161129a565b82525050565b60006020820190506114386000830184611414565b92915050565b60006020828403121561145457611453611295565b5b6000611462848285016112bb565b91505092915050565b611474816113a9565b82525050565b600060208201905061148f600083018461146b565b92915050565b600081519050919050565b600082825260208201905092915050565b6000819050602082019050919050565b6114ca8161129a565b82525050565b60006114dc83836114c1565b60208301905092915050565b6000602082019050919050565b600061150082611495565b61150a81856114a0565b9350611515836114b1565b8060005b8381101561154657815161152d88826114d0565b9750611538836114e8565b925050600181019050611519565b5085935050505092915050565b6000602082019050818103600083015261156d81846114f5565b905092915050565b600082825260208201905092915050565b7f4c696d697420726561636865642c204e6f206d6f726520757365722063616e2060008201527f7374616b65000000000000000000000000000000000000000000000000000000602082015250565b60006115e2602583611575565b91506115ed82611586565b604082019050919050565b60006020820190508181036000830152611611816115d5565b9050919050565b600060608201905061162d600083018661146b565b61163a602083018561146b565b6116476040830184611414565b949350505050565b60008115159050919050565b6116648161164f565b811461166f57600080fd5b50565b6000815190506116818161165b565b92915050565b60006020828403121561169d5761169c611295565b5b60006116ab84828501611672565b91505092915050565b7f4e487b7100000000000000000000000000000000000000000000000000000000600052601160045260246000fd5b60006116ee8261129a565b91506116f98361129a565b9250828203905081811115611711576117106116b4565b5b92915050565b7f4e487b7100000000000000000000000000000000000000000000000000000000600052603260045260246000fd5b61174f816112d0565b82525050565b600060a08201905061176a6000830188611414565b6117776020830187611414565b6117846040830186611414565b6117916060830185611746565b61179e6080830184611414565b9695505050505050565b7f596f7520617265206e6f7420746865204f776e65720000000000000000000000600082015250565b60006117de601583611575565b91506117e9826117a8565b602082019050919050565b6000602082019050818103600083015261180d816117d1565b9050919050565b600061181f8261129a565b915061182a8361129a565b9250828201905080821115611842576118416116b4565b5b92915050565b60006118538261129a565b91507fffffffffffffffffffffffffffffffffffffffffffffffffffffffffffffffff8203611885576118846116b4565b5b600182019050919050565b7f596f7520617265206e6f7420746865204f776e6572206f66207468697320537460008201527f616b650000000000000000000000000000000000000000000000000000000000602082015250565b60006118ec602383611575565b91506118f782611890565b604082019050919050565b6000602082019050818103600083015261191b816118df565b9050919050565b600061192d8261129a565b91506119388361129a565b92508282026119468161129a565b9150828204841483151761195d5761195c6116b4565b5b5092915050565b7f4e487b7100000000000000000000000000000000000000000000000000000000600052601260045260246000fd5b600061199e8261129a565b91506119a98361129a565b9250826119b9576119b8611964565b5b828204905092915050565b60006040820190506119d9600083018561146b565b6119e66020830184611414565b9392505050565b7f4e487b7100000000000000000000000000000000000000000000000000000000600052603160045260246000fd5b7f54686973207374616b6520697320646561637469766174650000000000000000600082015250565b6000611a52601883611575565b9150611a5d82611a1c565b602082019050919050565b60006020820190508181036000830152611a8181611a45565b9050919050565b7f596f757220526577617264206973206e6f742067656e65726174656421000000600082015250565b6000611abe601d83611575565b9150611ac982611a88565b602082019050919050565b60006020820190508181036000830152611aed81611ab1565b9050919050565b7f456e6f676820636f696e7320696e20526577617264506f6f6c20706c6561736560008201527f20636f6e7461637420746f2074686520417574686f7269747900000000000000602082015250565b6000611b50603983611575565b9150611b5b82611af4565b604082019050919050565b60006020820190508181036000830152611b7f81611b43565b9050919050565b6000606082019050611b9b6000830186611414565b611ba86020830185611414565b611bb56040830184611414565b94935050505056fea2646970667358221220048f88ace3d81e3004f6de2c9acc47d0bffe34758df93e47f1f2082396ee08f664736f6c63430008120033",
  "linkReferences": {},
  "deployedLinkReferences": {}
}