{
  "_format": "hh-sol-artifact-1",
  "contractName": "MyToken",
  "sourceName": "contracts/MyToken.sol",
  "abi": [
    {
      "anonymous": false,
      "inputs": [
        {
          "indexed": true,
          "internalType": "address",
          "name": "_owner",
          "type": "address"
        },
        {
          "indexed": true,
          "internalType": "address",
          "name": "_spender",
          "type": "address"
        },
        {
          "indexed": false,
          "internalType": "uint256",
          "name": "_value",
          "type": "uint256"
        }
      ],
      "name": "Approval",
      "type": "event"
    },
    {
      "anonymous": false,
      "inputs": [
        {
          "indexed": true,
          "internalType": "address",
          "name": "_from",
          "type": "address"
        },
        {
          "indexed": true,
          "internalType": "address",
          "name": "_to",
          "type": "address"
        },
        {
          "indexed": false,
          "internalType": "uint256",
          "name": "_value",
          "type": "uint256"
        }
      ],
      "name": "Transfer",
      "type": "event"
    },
    {
      "inputs": [
        {
          "internalType": "address",
          "name": "_owner",
          "type": "address"
        },
        {
          "internalType": "address",
          "name": "_spender",
          "type": "address"
        }
      ],
      "name": "allowance",
      "outputs": [
        {
          "internalType": "uint256",
          "name": "remaining",
          "type": "uint256"
        }
      ],
      "stateMutability": "view",
      "type": "function"
    },
    {
      "inputs": [
        {
          "internalType": "address",
          "name": "_spender",
          "type": "address"
        },
        {
          "internalType": "uint256",
          "name": "_value",
          "type": "uint256"
        }
      ],
      "name": "approve",
      "outputs": [
        {
          "internalType": "bool",
          "name": "success",
          "type": "bool"
        }
      ],
      "stateMutability": "nonpayable",
      "type": "function"
    },
    {
      "inputs": [
        {
          "internalType": "address",
          "name": "_owner",
          "type": "address"
        }
      ],
      "name": "balanceOf",
      "outputs": [
        {
          "internalType": "uint256",
          "name": "balance",
          "type": "uint256"
        }
      ],
      "stateMutability": "view",
      "type": "function"
    },
    {
      "inputs": [],
      "name": "decimals",
      "outputs": [
        {
          "internalType": "uint8",
          "name": "",
          "type": "uint8"
        }
      ],
      "stateMutability": "view",
      "type": "function"
    },
    {
      "inputs": [
        {
          "internalType": "uint8",
          "name": "_dec",
          "type": "uint8"
        }
      ],
      "name": "initialize",
      "outputs": [],
      "stateMutability": "nonpayable",
      "type": "function"
    },
    {
      "inputs": [
        {
          "internalType": "uint256",
          "name": "_amount",
          "type": "uint256"
        }
      ],
      "name": "mintByOwner",
      "outputs": [],
      "stateMutability": "nonpayable",
      "type": "function"
    },
    {
      "inputs": [],
      "name": "name",
      "outputs": [
        {
          "internalType": "string",
          "name": "",
          "type": "string"
        }
      ],
      "stateMutability": "view",
      "type": "function"
    },
    {
      "inputs": [],
      "name": "symbol",
      "outputs": [
        {
          "internalType": "string",
          "name": "",
          "type": "string"
        }
      ],
      "stateMutability": "view",
      "type": "function"
    },
    {
      "inputs": [],
      "name": "totalSupply",
      "outputs": [
        {
          "internalType": "uint256",
          "name": "",
          "type": "uint256"
        }
      ],
      "stateMutability": "view",
      "type": "function"
    },
    {
      "inputs": [
        {
          "internalType": "address",
          "name": "_to",
          "type": "address"
        },
        {
          "internalType": "uint256",
          "name": "_value",
          "type": "uint256"
        }
      ],
      "name": "transfer",
      "outputs": [
        {
          "internalType": "bool",
          "name": "success",
          "type": "bool"
        }
      ],
      "stateMutability": "nonpayable",
      "type": "function"
    },
    {
      "inputs": [
        {
          "internalType": "address",
          "name": "_from",
          "type": "address"
        },
        {
          "internalType": "address",
          "name": "_to",
          "type": "address"
        },
        {
          "internalType": "uint256",
          "name": "_value",
          "type": "uint256"
        }
      ],
      "name": "transferFrom",
      "outputs": [
        {
          "internalType": "bool",
          "name": "success",
          "type": "bool"
        }
      ],
      "stateMutability": "nonpayable",
      "type": "function"
    }
  ],
  "bytecode": "0x608060405234801561001057600080fd5b506112ad806100206000396000f3fe608060405234801561001057600080fd5b50600436106100a95760003560e01c8063313ce56711610071578063313ce567146101665780634351e6b61461018457806370a08231146101a057806395d89b41146101d0578063a9059cbb146101ee578063dd62ed3e1461021e576100a9565b806306fdde03146100ae578063095ea7b3146100cc57806318160ddd146100fc57806323b872dd1461011a5780632a944b191461014a575b600080fd5b6100b661024e565b6040516100c39190610afd565b60405180910390f35b6100e660048036038101906100e19190610bb8565b6102e0565b6040516100f39190610c13565b60405180910390f35b6101046103d2565b6040516101119190610c3d565b60405180910390f35b610134600480360381019061012f9190610c58565b6103dc565b6040516101419190610c13565b60405180910390f35b610164600480360381019061015f9190610cab565b6105ec565b005b61016e610652565b60405161017b9190610cf4565b60405180910390f35b61019e60048036038101906101999190610d3b565b610669565b005b6101ba60048036038101906101b59190610d68565b610766565b6040516101c79190610c3d565b60405180910390f35b6101d86107af565b6040516101e59190610afd565b60405180910390f35b61020860048036038101906102039190610bb8565b610841565b6040516102159190610c13565b60405180910390f35b61023860048036038101906102339190610d95565b610974565b6040516102459190610c3d565b60405180910390f35b60606000805461025d90610e04565b80601f016020809104026020016040519081016040528092919081815260200182805461028990610e04565b80156102d65780601f106102ab576101008083540402835291602001916102d6565b820191906000526020600020905b8154815290600101906020018083116102b957829003601f168201915b5050505050905090565b600081600560003373ffffffffffffffffffffffffffffffffffffffff1673ffffffffffffffffffffffffffffffffffffffff16815260200190815260200160002060008573ffffffffffffffffffffffffffffffffffffffff1673ffffffffffffffffffffffffffffffffffffffff168152602001908152602001600020819055508273ffffffffffffffffffffffffffffffffffffffff163373ffffffffffffffffffffffffffffffffffffffff167f8c5be1e5ebec7d5bd14f71427d1e84f3dd0314c0f7b2291e5b200ac8c7c3b925846040516103c09190610c3d565b60405180910390a36001905092915050565b6000600354905090565b600080600560008673ffffffffffffffffffffffffffffffffffffffff1673ffffffffffffffffffffffffffffffffffffffff16815260200190815260200160002060003373ffffffffffffffffffffffffffffffffffffffff1673ffffffffffffffffffffffffffffffffffffffff168152602001908152602001600020549050808311156104a1576040517f08c379a000000000000000000000000000000000000000000000000000000000815260040161049890610e81565b60405180910390fd5b82600560008773ffffffffffffffffffffffffffffffffffffffff1673ffffffffffffffffffffffffffffffffffffffff16815260200190815260200160002060003373ffffffffffffffffffffffffffffffffffffffff1673ffffffffffffffffffffffffffffffffffffffff168152602001908152602001600020600082825461052d9190610ed0565b9250508190555082600460008773ffffffffffffffffffffffffffffffffffffffff1673ffffffffffffffffffffffffffffffffffffffff16815260200190815260200160002060008282546105839190610ed0565b9250508190555082600460008673ffffffffffffffffffffffffffffffffffffffff1673ffffffffffffffffffffffffffffffffffffffff16815260200190815260200160002060008282546105d99190610f04565b9250508190555060019150509392505050565b600660009054906101000a900473ffffffffffffffffffffffffffffffffffffffff1673ffffffffffffffffffffffffffffffffffffffff163373ffffffffffffffffffffffffffffffffffffffff161461064657600080fd5b61064f816109fb565b50565b6000600260009054906101000a900460ff16905090565b6040518060400160405280600581526020017f416873616e000000000000000000000000000000000000000000000000000000815250600090816106ad9190611113565b506040518060400160405280600381526020017f41534e0000000000000000000000000000000000000000000000000000000000815250600190816106f29190611113565b5073f6f304847c55f0ecc3c55640fbcde615b08fe30e600660006101000a81548173ffffffffffffffffffffffffffffffffffffffff021916908373ffffffffffffffffffffffffffffffffffffffff16021790555080600260006101000a81548160ff021916908360ff16021790555050565b6000600460008373ffffffffffffffffffffffffffffffffffffffff1673ffffffffffffffffffffffffffffffffffffffff168152602001908152602001600020549050919050565b6060600180546107be90610e04565b80601f01602080910402602001604051908101604052809291908181526020018280546107ea90610e04565b80156108375780601f1061080c57610100808354040283529160200191610837565b820191906000526020600020905b81548152906001019060200180831161081a57829003601f168201915b5050505050905090565b600080600460003373ffffffffffffffffffffffffffffffffffffffff1673ffffffffffffffffffffffffffffffffffffffff1681526020019081526020016000205490506000839050818111156108ce576040517f08c379a00000000000000000000000000000000000000000000000000000000081526004016108c590611257565b60405180910390fd5b80600460003373ffffffffffffffffffffffffffffffffffffffff1673ffffffffffffffffffffffffffffffffffffffff1681526020019081526020016000206000828254039250508190555080600460008773ffffffffffffffffffffffffffffffffffffffff1673ffffffffffffffffffffffffffffffffffffffff1681526020019081526020016000206000828254019250508190555060019250505092915050565b6000600560008473ffffffffffffffffffffffffffffffffffffffff1673ffffffffffffffffffffffffffffffffffffffff16815260200190815260200160002060008373ffffffffffffffffffffffffffffffffffffffff1673ffffffffffffffffffffffffffffffffffffffff16815260200190815260200160002054905092915050565b80600460003373ffffffffffffffffffffffffffffffffffffffff1673ffffffffffffffffffffffffffffffffffffffff1681526020019081526020016000206000828254610a4a9190610f04565b925050819055508060036000828254610a639190610f04565b9250508190555050565b600081519050919050565b600082825260208201905092915050565b60005b83811015610aa7578082015181840152602081019050610a8c565b60008484015250505050565b6000601f19601f8301169050919050565b6000610acf82610a6d565b610ad98185610a78565b9350610ae9818560208601610a89565b610af281610ab3565b840191505092915050565b60006020820190508181036000830152610b178184610ac4565b905092915050565b600080fd5b600073ffffffffffffffffffffffffffffffffffffffff82169050919050565b6000610b4f82610b24565b9050919050565b610b5f81610b44565b8114610b6a57600080fd5b50565b600081359050610b7c81610b56565b92915050565b6000819050919050565b610b9581610b82565b8114610ba057600080fd5b50565b600081359050610bb281610b8c565b92915050565b60008060408385031215610bcf57610bce610b1f565b5b6000610bdd85828601610b6d565b9250506020610bee85828601610ba3565b9150509250929050565b60008115159050919050565b610c0d81610bf8565b82525050565b6000602082019050610c286000830184610c04565b92915050565b610c3781610b82565b82525050565b6000602082019050610c526000830184610c2e565b92915050565b600080600060608486031215610c7157610c70610b1f565b5b6000610c7f86828701610b6d565b9350506020610c9086828701610b6d565b9250506040610ca186828701610ba3565b9150509250925092565b600060208284031215610cc157610cc0610b1f565b5b6000610ccf84828501610ba3565b91505092915050565b600060ff82169050919050565b610cee81610cd8565b82525050565b6000602082019050610d096000830184610ce5565b92915050565b610d1881610cd8565b8114610d2357600080fd5b50565b600081359050610d3581610d0f565b92915050565b600060208284031215610d5157610d50610b1f565b5b6000610d5f84828501610d26565b91505092915050565b600060208284031215610d7e57610d7d610b1f565b5b6000610d8c84828501610b6d565b91505092915050565b60008060408385031215610dac57610dab610b1f565b5b6000610dba85828601610b6d565b9250506020610dcb85828601610b6d565b9150509250929050565b7f4e487b7100000000000000000000000000000000000000000000000000000000600052602260045260246000fd5b60006002820490506001821680610e1c57607f821691505b602082108103610e2f57610e2e610dd5565b5b50919050565b7f416c6c6f77616e63652072656163686564206d6178696d756d206c696d697400600082015250565b6000610e6b601f83610a78565b9150610e7682610e35565b602082019050919050565b60006020820190508181036000830152610e9a81610e5e565b9050919050565b7f4e487b7100000000000000000000000000000000000000000000000000000000600052601160045260246000fd5b6000610edb82610b82565b9150610ee683610b82565b9250828203905081811115610efe57610efd610ea1565b5b92915050565b6000610f0f82610b82565b9150610f1a83610b82565b9250828201905080821115610f3257610f31610ea1565b5b92915050565b7f4e487b7100000000000000000000000000000000000000000000000000000000600052604160045260246000fd5b60008190508160005260206000209050919050565b60006020601f8301049050919050565b600082821b905092915050565b600060088302610fc97fffffffffffffffffffffffffffffffffffffffffffffffffffffffffffffffff82610f8c565b610fd38683610f8c565b95508019841693508086168417925050509392505050565b6000819050919050565b600061101061100b61100684610b82565b610feb565b610b82565b9050919050565b6000819050919050565b61102a83610ff5565b61103e61103682611017565b848454610f99565b825550505050565b600090565b611053611046565b61105e818484611021565b505050565b5b818110156110825761107760008261104b565b600181019050611064565b5050565b601f8211156110c75761109881610f67565b6110a184610f7c565b810160208510156110b0578190505b6110c46110bc85610f7c565b830182611063565b50505b505050565b600082821c905092915050565b60006110ea600019846008026110cc565b1980831691505092915050565b600061110383836110d9565b9150826002028217905092915050565b61111c82610a6d565b67ffffffffffffffff81111561113557611134610f38565b5b61113f8254610e04565b61114a828285611086565b600060209050601f83116001811461117d576000841561116b578287015190505b61117585826110f7565b8655506111dd565b601f19841661118b86610f67565b60005b828110156111b35784890151825560018201915060208501945060208101905061118e565b868310156111d057848901516111cc601f8916826110d9565b8355505b6001600288020188555050505b505050505050565b7f416d6f756e742073686f756c64206265206c657373207468656e20617661696c60008201527f61626c652062616c616e63650000000000000000000000000000000000000000602082015250565b6000611241602c83610a78565b915061124c826111e5565b604082019050919050565b6000602082019050818103600083015261127081611234565b905091905056fea26469706673582212208f89934873c90f57dbeb6a31893b8df55f5c9b40198cf1af96027e806b7afb1664736f6c63430008120033",
  "linkReferences": {},
  "deployedLinkReferences": {}
}